:020000040800F2
:1000000000000120A9300008A5300008A330000836
:10001000A3300008A3300008A3300008000000004F
:10002000000000000000000000000000A5300008F3
:10003000A530000800000000A5300008551E00088B
:10004000A3300008A3300008A3300008B105000861
:10005000A3300008A3300008A3300008A330000834
:10006000A3300008A3300008A3300008A330000824
:10007000A3300008A3300008A3300008A330000814
:10008000A3300008A3300008A3300008A330000804
:1000900001040008A3300008A3300008A3300008C2
:1000A000A3300008A3300008A3300008A3300008E4
:1000B000A3300008A3300008F91E0008A330000890
:1000C000A3300008A3300008A3300008A3300008C4
:1000D000A3300008E1170008A3300008A33000088F
:1000E000A3300008A3300008E9030008A33000088B
:1000F000A3300008A3300008A3300008A330000894
:10010000A3300008A3300008A3300008A330000883
:10011000A3300008A3300008A3300008A330000873
:10012000A3300008A3300008A3300008A330000863
:10013000A3300008A3300008A3300008A330000853
:10014000A3300008A3300008A3300008A330000843
:1001500080B485B000AFF860B9607A603B60BB687E
:100160005B78202B03D0222B09D1012308E03B68C8
:100170001B88062B01D8002302E0012300E00023A6
:1001800018461437BD4680BC704780B594B000AFA8
:1001900078600B46FB7007F1080240230121786864
:1001A00002F027FB0346BB64BB6C9BB207F108025D
:1001B0008221786802F016FB002387F84F300EE0AA
:1001C00097F84F3007F15002134413F8483C184693
:1001D00000F0ECF897F84F30013387F84F3097F87C
:1001E0004F30BA6C9A42EBDC00BF5037BD4680BD41
:1001F00080B483B000AF78600B46FB7000BF0C3753
:10020000BD4680BC7047000080B584B002AF786006
:100210000B467B80124B0093402302220121786819
:1002200002F0C0FA0F4B009340230222822178682B
:1002300002F0B8FA00230093102303228321786888
:1002400002F0B0FA084B7F222121786802F09BFB74
:100250007B88064AC2F8DC3200BF0837BD4680BD45
:100260008B010008F101000851010008300A00204C
:1002700080B586B004AF4FF400430022022120482D
:1002800001F0D8FE4FF400411D4802F063F98023CD
:1002900002931C4B0193032300931B4B1B4A1C49E5
:1002A0001C4802F053FA02461B4B1A611A4B1B6999
:1002B0001A49184602F034FE3B464FF4FA611846DC
:1002C00001F09EFE4FF400410D4802F041F94FF459
:1002D00000721349104801F01CFA0F4B0022C3F8BA
:1002E000DC220D4B0022C3F8D422142002F05AFF66
:1002F0002A2002F057FF00BF0837BD4680BD00BF6F
:1003000000080140440A002000000020189900085D
:100310007098000858990008300A00200902000867
:10032000C40A002080B582B000AF1E4BD3F8DC3287
:10033000002B31D00CE01B4BD3F8D4325A1C194996
:10034000C1F8D422F979174A13440A4683F8942253
:10035000144BD3F8D4323F2B07D8FB1D1946114854
:1003600001F0EFF90346002BE5D10E4BD3F8D43260
:10037000002B14D00B4B18690A4BD3F8D4329BB224
:10038000094A822102F02EFA0346002B06D0054BC3
:100390000022C3F8D42202E000BF00E000BF08370B
:1003A000BD4680BD300A0020C40C002080B584B05A
:1003B00000AF0346FB71FB7919460A4801F0E8F9E2
:1003C0000346002B0AD107F10F031946054801F037
:1003D000B8F9FB791946034801F0DAF900BF103784
:1003E000BD4680BD300A002080B500AF034B1B69BD
:1003F000184602F0D3F900BF80BD00BF300A0020CC
:1004000080B500AF034B1B69184602F0C7F900BF67
:1004100080BD00BF300A002080B500AF47F6FF71F5
:10042000052002F07BF8032002F0BCFE012103202E
:1004300002F0C6FE002002F003F802F0E1F8124BD1
:100440001B684AF2A65293421AD00F4B4AF2A652A8
:100450001A600E4B40F2E3721A800C4B07229A701E
:100460000A4B0522DA70094B04225A71074B0E22FF
:100470009A71064B0022DA710721044800F037F820
:1004800002F0C6F800BF80BD046C0040100D0020D3
:1004900080B58EB000AF78607B68B3F900301BB2D6
:1004A000A3F26C733B627B6893F90230013BFB6102
:1004B0007B6893F90330BB617B6893F905307B61FE
:1004C0007B6893F906303B617B6893F90730FB60EA
:1004D0004FF0FF33FB6207F10C03184603F0E4FB17
:1004E000C7E90C013B6B18463837BD4680BD80B567
:1004F00084B000AF78600B46FB70002001F0BEFFB7
:100500007868FFF7C5FFF860FB784FF4616202FB83
:1005100003F31A46FB681344FB60F86801F082FF9E
:10052000002001F08DFF00BF1037BD4680BD90B5A3
:1005300087B000AF786039603B684FF00004C7E9CE
:10054000023407F10803184603F0BEF878617B69AE
:100550001B685AB27B68DA717B695B685AB27B6848
:100560009A717B699B685AB27B685A717B69DB68B8
:100570005AB27B68DA707B699B69DBB20133DBB20C
:100580005AB27B681A717B691B69DBB20133DBB23B
:100590005AB27B689A707B695B699BB203F26C7399
:1005A0009BB21AB27B681A8000BF1C37BD4690BD53
:1005B00080B582B000AF002001F07EFF01F028FF7F
:1005C00003467B607B6819460348FFF7B0FF00BF16
:1005D0000837BD4680BD00BF100D002080B487B035
:1005E00000AFF860B96011461A460B46FB8013460F
:1005F000BB80FB68BA681A60FB68FA889A80FB685F
:10060000BA88DA80FB6804221A83FB6804225A83C2
:10061000FB68B3F904309AB2FB68B3F918309BB2A7
:10062000D31A9BB2013B9BB21AB2FB689A83FB6858
:10063000B3F906309AB2FB68B3F918309BB2D31AFB
:100640009BB2013B9BB21AB2FB68DA83FB68B3F939
:100650001C20FB689A82FB68B3F91E20FB68DA82D3
:10066000FB68002283F82020FB68012283F8212008
:10067000FB68012283F83820FB68012283F83920C7
:10068000FB6800225A62FB6800229A85FB68002200
:100690005A85FB680022DA85FB6800221A86FB680F
:1006A00000225A63FB68002283F83C20FB68012289
:1006B00083F83A20FB68002283F83B200023FB7577
:1006C0000FE0FA7DFB680832002143F83210FB7D11
:1006D000FA680833DB00134400221A71FB7D0133F2
:1006E000FB75FB7D022BECD9044AFB6813600123E8
:1006F00018461C37BD4680BC704700BF180D00204F
:10070000B0B483B000AF7860074B1B687A6803F120
:10071000240415460FCD0FC42B68236000BF0C378F
:10072000BD46B0BC704700BF180D002090B585B025
:1007300002AF0446084611461A462346FB8003468C
:10074000BB800B467B8013463B80B7F90440B7F96A
:100750000220B7F90410B7F906003B7E0093234648
:1007600000F00AF9B7F90040B7F90220B7F9001014
:10077000B7F906003B7E0093234600F0FDF8B7F979
:100780000040B7F90620B7F90410B7F906003B7E20
:100790000093234600F0F0F8B7F90040B7F90220C3
:1007A000B7F90410B7F902003B7E0093234600F02E
:1007B000E3F800BF0C37BD4690BD000090B587B090
:1007C00000AF0446084611461A462346FB800346FE
:1007D000BB800B467B8013467B70B7F90630002B3D
:1007E000C0F2C080B7F90430002BC0F2BD80B7F969
:1007F0000230002B40F3BA807B885B009BB2C3F1D0
:1008000001039BB27B8200233B820023FB817B8818
:10081000FB820023BB829DE0564B1B681B68F98856
:10082000FA8A8A1A92B210B2B988BA8A0A4492B283
:1008300011B27A7898474F4B1B681B68F988FA8A7F
:100840008A1A92B210B2B988BA8A8A1A92B211B2CE
:100850007A789847474B1B681B68F988FA8A0A44DC
:1008600092B210B2B988BA8A0A4492B211B27A78B6
:100870009847404B1B681B68F988FA8A0A4492B271
:1008800010B2B988BA8A8A1A92B211B27A789847A5
:10089000384B1B681B68F988BA8A8A1A92B210B260
:1008A000B988FA8A0A4492B211B27A789847314BE1
:1008B0001B681B68F988BA8A8A1A92B210B2B98882
:1008C000FA8A8A1A92B211B27A789847294B1B6831
:1008D0001B68F988BA8A0A4492B210B2B988FA8AB7
:1008E0000A4492B211B27A789847224B1B681B686F
:1008F000F988BA8A0A4492B210B2B988FA8A8A1A76
:1009000092B211B27A789847B7F914309BB201339A
:100910009BB2BB82FA893B8A13449BB2FB813B8A20
:1009200002339BB23B82B7F90E305A00B7F912304E
:100930001344002B0EDDB7F916309BB2013B9BB27E
:10094000FB82FA897B8A13449BB2FB817B8A023348
:100950009BB27B82B7F91620B7F914309A42BFF6E2
:100960005BAF04E000BF02E000BF00E000BF1C3747
:10097000BD4690BD180D0020B0B58AB002AF044648
:10098000084611461A462346FB800346BB800B46A9
:100990007B8013463B80664B1B6893F8443003F022
:1009A0000203002B14D0624B1B681B6C1C46B7F96A
:1009B0000050B7F90220B7F90410B7F9060097F80C
:1009C000303000932B46A0470346002B00F0AC804C
:1009D0007A88FB88D31A9BB2BB823A88BB88D31A29
:1009E0009BB27B82B7F91430002BB8BF5B423B82CD
:1009F000B7F91230002BB8BF5B42FB81B7F9143056
:100A0000002B01DD012301E04FF0FF33BB81B7F97B
:100A10001230002B01DD012301E04FF0FF337B8119
:100A2000B7F90E305B10BB83B7F910305B107B83D6
:100A3000FB883B83BB88FB823D4B1B681B6897F898
:100A40003020B7F91610B7F918009847B7F91020F9
:100A5000B7F90E309A4233DB0023FB8329E07A8B0F
:100A6000FB8913449BB27B83B7F91A20B7F9103086
:100A70009A4209DB7A8B3B8AD31A9BB27B83FA8A30
:100A80007B8913449BB2FB823A8BBB8913449BB294
:100A90003B83274B1B681B6897F83020B7F916106B
:100AA000B7F918009847B7F91E309BB201339BB2D3
:100AB000FB83B7F91E20B7F910309A42CFDB34E040
:100AC0000023FB8329E0BA8B3B8A13449BB2BB8390
:100AD000B7F91C20B7F90E309A4209DBBA8BFB89B3
:100AE000D31A9BB2BB833A8BBB8913449BB23B8323
:100AF000FA8A7B8913449BB2FB820D4B1B681B68EF
:100B000097F83020B7F91610B7F918009847B7F9D9
:100B10001E309BB201339BB2FB83B7F91E20B7F99D
:100B20000E309A42CFDB00E000BF2037BD46B0BD9B
:100B3000180D002090B587B002AF03463A60FB80E5
:100B40000B46BB80FB88FB81BB88BB816DE03B68AB
:100B50005A1C3A601B78FB72FB7A9AB2374B1B68BF
:100B6000DB8D9A4261D3FB7A9AB2344B1B681B8EA1
:100B70009A4200D959E0FB7A0A2B04D12F4B1B680B
:100B80009B88FB8151E02D4B1B685B6B002B0AD0CF
:100B90002A4B1B685B6BFA7A28490968C98D521A7F
:100BA00013441B7804E0254B1B68B3F92A30DBB2F1
:100BB000BB72B7F90E20BB7A1A44204B1B68B3F9FD
:100BC0000430013B9A4211DDFB88FB811B4B1B6803
:100BD000B3F92C309AB2194B1B6893F939309BB298
:100BE00013449AB2BB8913449BB2BB81134B1B685D
:100BF00093F83A40114B1B6893F83B30B7F90C203F
:100C0000B7F90E10F87A0093234600F019F8BB7A72
:100C10001AB20A4B1B6893F938301BB213441BB24B
:100C20009AB2FB8913449BB2FB813B681B78002B73
:100C30008DD100BF1437BD4690BD00BF180D0020F8
:100C400090B585B002AF0446084611461A462346C1
:100C5000FB710346BB800B467B801346BB71094B7F
:100C60001B682433BC79B7F90220B7F90410F8796E
:100C700001933B7E0093234600F006F800BF0C373B
:100C8000BD4690BD180D0020B0B58EB002AF044631
:100C9000084611461A462346FB710346BB800B46A5
:100CA0007B801346BB71FB79FB76FB7E9AB27B6C33
:100CB0005B899A42C0F04B82FB7E9AB27B6C9B8927
:100CC0009A4200F244827B88FB847B6CB3F9063045
:100CD0007B847B8C002B00F03C827B8CDB087B844C
:100CE0007B6CB3F906309BB203F007039BB2002B79
:100CF00002D07B8C01337B847B6C1B69002B09D079
:100D00007B6C1B69FA7E796C4989521A13441B78F3
:100D10009BB203E07B6CB3F906309BB23B837B6CE8
:100D20001B79022B7BD17B6C1B68FB60A34B1B6880
:100D300093F8443003F00203002B66D00023FB85B8
:100D400063E0FA7EFB6853F82220FB8D13441B7886
:100D5000303B3A8B02FB03F3FA68B2F9002493FBB1
:100D6000F2F39AB2BB8813449BB218B2FA7EFB68C6
:100D700053F82220FB8D013313441B78303B7A6CEF
:100D8000B2F9082002FB03F3FA68B2F9022493FBDC
:100D9000F2F39AB27B8813449BB219B2FA7EFB68D5
:100DA00053F82220FB8D023313441B78303B3A8BDF
:100DB00002FB03F3FA68B2F9002493FBF2F39AB250
:100DC000BB8813449BB21CB2FA7EFB6853F8222006
:100DD000FB8D033313441B78303B7A6CB2F9082047
:100DE00002FB03F3FA68B2F9022493FBF2F39AB21E
:100DF0007B8813449BB21AB2BB79009313462246F8
:100E0000FFF7BAFDFB8D0433FB85FA7EFB6853F8D0
:100E10002220FB8D13441B78002B92D19AE1674B63
:100E20001B6893F8543003F00203002B00F0C880D5
:100E3000624B1B681B6D1C46BA883B8B13449BB2EC
:100E4000013B9BB21DB27B6CB3F908309AB27B8830
:100E500013449BB2013B9BB21BB2B7F90210B7F926
:100E600004002A46A04703463B617B6C1B79002B9C
:100E700052D1FB7E7A6C52899B1A7A6CB2F90820A7
:100E800002FB03F37A8C02FB03F3FB610023BB85B7
:100E90003BE03B8BBB840023FB852FE07B6C1A6817
:100EA000FB69591CF96113441B7887F82130002332
:100EB0007B851AE097F8213003F00103002B04D062
:100EC000BA793B691046984704E097F840203B699F
:100ED0001046984797F821305B0887F82130BB8C83
:100EE000013BBB847B8D01337B857B8D072B02D837
:100EF000BB8C002BDED1FB8D0133FB85FA8D7B8C07
:100F00009A42CBD3BB8D0133BB85BB8D7A6CB2F9D2
:100F100008209342BDDB1DE17B6C1B79012B40F067
:100F20001981FB7E7A6C52899B1A7A6CB2F908207F
:100F300002FB03F37A6CB2F9062002FB03F3FB61B8
:100F40000023BB8533E00023FB851FE07B6C1A6820
:100F5000FB69591CF96113441B7887F82130BB7970
:100F600097F8212002FB03F297F8403097F8211000
:100F7000C1F5807101FB03F313441B12FB75FA7D6D
:100F80003B6910469847FB8D0133FB85FA8D3B8BFF
:100F90009A42DBD37B6CB3F906301A463B8BD31AEB
:100FA0001A46FB691344FB61BB8D0133BB85BB8DC6
:100FB0007A6CB2F908209342C5DBCBE0180D002013
:100FC0007B6C1B79002B64D1FB7E7A6C52899B1A57
:100FD0007A6CB2F9082002FB03F37A8C02FB03F36C
:100FE000FB610023BB854DE0BB883B853B8BBB840D
:100FF0000023FB853CE07B6C1A68FB69591CF96196
:1010000013441B7887F8213000237B8527E097F86D
:10101000213003F00103002B09D0504B1B681B68E3
:10102000B7F92800B7F92610BA79984709E04B4B71
:101030001B681B68B7F92800B7F9261097F84020FD
:10104000984797F821305B0887F821303B8D0133B2
:101050003B85BB8C013BBB847B8D01337B857B8DCA
:10106000072B02D8BB8C002BD1D1FB8D0133FB8524
:10107000FA8D7B8C9A42BED3FB8C0133FB84BB8DF3
:101080000133BB85BB8D7A6CB2F908209342ABDB90
:1010900060E07B6C1B79012B5CD1FB7E7A6C528902
:1010A0009B1A7A6CB2F9082002FB03F37A6CB2F94E
:1010B000062002FB03F3FB610023BB8540E0BB88F5
:1010C0003B850023FB8527E07B6C1A68FB69591C74
:1010D000F96113441B7887F82130BB7997F82120F8
:1010E00002FB03F297F8403097F82110C1F58071A8
:1010F00001FB03F313441B12FB75184B1B681B68A1
:10110000B7F92800B7F92610FA7D98473B8D0133CF
:101110003B85FB8D0133FB85FA8D3B8B9A42D3D304
:101120007B6CB3F906301A463B8BD31A1A46FB691F
:101130001344FB61FB8C0133FB84BB8D0133BB8506
:10114000BB8D7A6CB2F908209342B8DB02E000BF95
:1011500000E000BF3037BD46B0BD00BF180D002015
:101160002DE9B04386B002AFF860B9607A60F868E4
:1011700005F064FE02460B4605F002FD03460C46F0
:101180001846214648A3D3E9002305F0AFFE0346E5
:101190000C4625461C46B86805F050FE02460B4634
:1011A0002046294605F0CCFF03460C46184621464A
:1011B0003FA3D3E9002305F0E1FC03460C461846A3
:1011C000214606F0CDF802463B4B1A603B4B1B68AC
:1011D000184605F021FE04460D46786805F01CFE11
:1011E00080468946344B1B68184605F027FE0246A8
:1011F0000B461046194606F0F1FB02460B464046E8
:10120000494605F073FE02460B462046294605F086
:10121000B7FC03460C461846214606F079F802460C
:10122000274B1A60274B1B68184605F0F5FD04464E
:101230000D46786805F0F0FD804689461E4B1B6818
:10124000184605F0FBFD02460B461046194606F00F
:101250000DFC02460B464046494605F047FE024655
:101260000B462046294605F08BFC03460C461846E3
:10127000214606F04DF80246134B1A600F4B1B68CF
:1012800018B2104B1B6819B20D4B1B681AB20E4BEB
:101290001B681CB2012300932346FFF76DFB00BFC0
:1012A0001037BD46BDE8B0836F1283C0CA21094024
:1012B000363CBD529621F93F981100200C000020C9
:1012C00088110020100000208C1100200000000078
:1012D000B0B584B002AF844B1B6818B2834B1B6857
:1012E00019B201231B22FFF769FA7F4B1B6818B262
:1012F0007E4B1B6819B201230122FFF75FFA7C487D
:10130000FFF7FEF97B4A09215A20FFF713FC7A4ABE
:1013100019217220FFF70EFC784A2C215E20FFF77E
:1013200009FC774A19214A20FFF704FC00237B605F
:10133000CDE0786805F070FD4FF00002714B05F0CC
:10134000FFFE03460C461846214602460B4605F0B2
:1013500017FC03460C461846214661A3D3E9002337
:1013600005F0C4FD03460C461846214605F0F8FF7B
:101370000246654B1A605C4B1B68184605F04CFD35
:1013800004460D46604B1B68184605F057FD0246A3
:101390000B461046194606F021FB4FF000025B4B4E
:1013A00005F0A4FD02460B462046294605F0E8FB61
:1013B00003460C461846214605F0AAFF0246544B48
:1013C0001A604A4B1B68184605F026FD04460D4678
:1013D0004D4B1B68184605F031FD02460B46104682
:1013E000194606F043FB4FF00002484B05F07EFD26
:1013F00002460B462046294605F0C2FB03460C4632
:101400001846214605F084FF0246424B1A60364BCF
:101410001B68184605F000FD04460D463A4B1B6854
:10142000184605F00BFD02460B461046194606F01D
:10143000D5FA4FF00002354B05F058FD02460B4639
:101440002046294605F09CFB03460C4618462146DB
:1014500005F05EFF0246304B1A60244B1B681846AD
:1014600005F0DAFC04460D46274B1B68184605F0CC
:10147000E5FC02460B461046194606F0F7FA4FF017
:101480000002224B05F032FD02460B46204629465B
:1014900005F076FB03460C461846214605F038FF5A
:1014A00002461E4B1A601A4B1B6818B2194B1B6878
:1014B00019B2194B1B681AB2184B1B681CB20123D6
:1014C00000932346FFF758FA7B6801337B607B6803
:1014D0000B2B7FF72EAF00BF0837BD46B0BD00BF56
:1014E0006F1283C0CA2109400C00002010000020A8
:1014F0005C980008489900084C9900085099000829
:10150000549900080000284098110020000039403C
:10151000881100208C1100209011002094110020CF
:1015200080B582B002AF1A4800F095FB012300930A
:101530003F237F2200210020FFF7F8F8FFF7C8FEC5
:10154000144B93F90530184606F014F803460A22A6
:1015500011491846FFF704FE0E4B93F90630184662
:1015600006F008F8034613220C491846FFF7F8FD69
:10157000084B93F90730184605F0FCFF0346152287
:1015800006491846FFF7ECFD00BFBD4680BD00BF11
:101590001C0D0020100D0020000040410000704292
:1015A00080B582B000AF0346FB800B46BB8013467C
:1015B000FB70FB88D9B2BB88DAB2FB78034800F035
:1015C00093FA00BF0837BD4680BD00BF1C0D002048
:1015D00080B5C0B004AF6FF07F43C7F8E83000F0CB
:1015E0006DF800F05FFB00F057FC4023029380236E
:1015F0000193102300932023254A2649264800F012
:10160000CDF9FEF709FFFEF733FE00F04BF807F1C6
:101610003C03184600F0B6FC1F4800F01CFB1E48B7
:1016200000F0CFFA402380221C491D48FEF7D6FF68
:10163000194800F0C6FA002387F8EF3007F13C03A1
:101640004FF4FA71184600F0B5FC0346002B0DD19B
:1016500097F8EF30013387F8EF3097F8EF30642BCD
:1016600002D9002387F8EF30FFF75AFF07F1340360
:101670004FF4FA71184600F09DFC0346002B02D18E
:10168000054800F09EFAFEF74DFE00F0B1FFD5E7E9
:1016900000100140003C00401C0D0020A115000876
:1016A0003011002080B500AF00F0A2FF41F2883079
:1016B00000F06CFF00F052FF00BF80BD80B500AFAE
:1016C00000F004FE40F2023000F0E1FF40F203308F
:1016D00000F0DDFF4FF4417000F0D9FF40F205301B
:1016E00000F0D5FF4FF4407000F0D1FF40F20B3016
:1016F00000F0CDFF40F2813000F0C9FF4FF443709D
:1017000000F0C5FF00214FF0007000F0C5FC00BFE5
:1017100080BD80B485B000AFF860B9607A60FB68C6
:10172000BA681A60FB687A685A60FB6800229A609F
:10173000FB689A68FB68DA6000BF1437BD4680BC5E
:10174000704780B483B000AF786039607B68DA6836
:101750007B689B689A4201D1002314E07B681A6879
:101760007B68DB6813441A783B681A707B68DB6817
:1017700001337A685268B3FBF2F102FB01F29A1A64
:101780007B68DA60012318460C37BD4680BC704781
:1017900080B485B000AF78600B46FB707B689B68B7
:1017A00001337A685268B3FBF2F102FB01F29B1A33
:1017B000FB607B68DB68FA689A4201D100230AE08B
:1017C0007B681A687B689B681344FA781A707B6898
:1017D000FA689A60012318461437BD4680BC7047EA
:1017E00080B582B000AF114B1B6803F02003002BC3
:1017F00017D00F4B1B6803F02003002B11D00C48AF
:1018000000F041FF0346FB71FB7919460948FFF7D9
:10181000BFFF00F06DFA0246074B1A60074B01222A
:101820001A7000BF0837BD4680BD00BF0C380140AC
:1018300000380140A4110020A01100209C110020BC
:1018400080B584B000AF78600B46FB701346BB7068
:101850004FF6FF73FB817B68D3F80834FA7892B2B5
:101860001146184600F059FF7B68D3F80824BB786E
:101870009BB203F0F0039BB21946104600F04DFFF7
:101880007B68D3F80824BB789BB21B019BB2194636
:10189000104600F042FF00BF7B68D3F808340833DD
:1018A0001B6803F08003002B04D0FB895A1EFA81C9
:1018B000002BF1D100BF1037BD4680BD80B582B08E
:1018C00000AF78600B46FB70FB781A46F821786809
:1018D000FFF7B6FF00BF0837BD4680BD80B582B0B8
:1018E00000AF78600B46FB70FB781A46FA217868E7
:1018F000FFF7A6FF00BF0837BD4680BD80B582B0A8
:1019000000AF78600B46FB701346BB703E217868D1
:10191000FFF7D4FF97F9033003F01F035BB263F0C6
:101920007F035BB2DBB219467868FFF7C7FFFB782D
:101930009B10DBB203F00803DAB2BB781343DBB2CF
:1019400063F07F03DBB219467868FFF7B7FF3220F8
:1019500000F010FA00BF0837BD4680BD80B582B0E8
:1019600000AF78607B68D3F80C247B68B3F812343E
:101970001946104600F0EEFD322000F011FA7B68A7
:10198000D3F80C247B68B3F812341946104600F0E3
:10199000DFFD00BF0837BD4680BD000080B586B0C2
:1019A00002AFF860B9607A607B80FB68BA68C3F800
:1019B0000824FB687A68C3F80C24FB687A88A3F8CB
:1019C0001024FB683A8BA3F812243A7FFB681A6054
:1019D00097F82020FB685A60BB683E4A93420AD1C0
:1019E0004FF4437000F053FEA023022203213A4833
:1019F00000F020FB1DE0BB68384A93420BD140F257
:101A00008E3000F044FE4FF420430222032134487C
:101A100000F010FB0DE0BB68324A934209D140F25E
:101A20008F3000F034FE2823022203212C4800F0DE
:101A300001FBB86800F054FE0023019300230093DB
:101A4000012302222821B86800F06CFEB86800F07B
:101A50005FFE7A883B8B13439BB200220321786898
:101A600000F0E8FAF868FFF779FF7B881946786894
:101A700000F06EFD0A2000F07DF93821F868FFF7CC
:101A80001DFF482000F076F90821F868FFF716FFDF
:101A9000482000F06FF90621F868FFF70FFF482093
:101AA00000F068F90221F868FFF708FF642000F0F1
:101AB00061F90121F868FFF701FF022000F070F9D9
:101AC0007B881946786800F045FD00BF1037BD4699
:101AD00080BD00BF003001400008014000380040D8
:101AE000000C0140003C004080B485B000AF78603D
:101AF000084611461A460346FB700B46BB70134658
:101B00007B70FA787B681B689A4255D2BA787B68FA
:101B10005B689A4250D2BB789BB21B019AB2FB78A9
:101B2000DB08DBB29BB21344FB817B78002B16D120
:101B3000FB897A6813441B7A5AB2FB7803F00703D7
:101B4000802141FA03F35BB2DB435BB213405AB22C
:101B5000FB89D1B27A6813440A461A722DE07B7869
:101B6000012B14D1FB897A6813441B7A5AB2FB7893
:101B700003F00703802141FA03F35BB213435AB227
:101B8000FB89D1B27A6813440A461A7215E0FB89C0
:101B90007A6813441B7A5AB2FB7803F0070380215A
:101BA00041FA03F35BB253405AB2FB89D1B27A686F
:101BB00013440A461A7200E000BF1437BD4680BCC9
:101BC000704780B584B000AF78607B68D3F80C2490
:101BD0007B68B3F810341946104600F0B9FC7B68F6
:101BE0000833BB600023FB7324E0FB7B0022194613
:101BF0007868FFF783FE0023BB7315E0BB685A1CAF
:101C0000BA601B7819467868FFF768FEBB685A1CF3
:101C1000BA601B7819467868FFF760FE0A2000F06A
:101C2000A9F8BB7B0133BB73BB7B072BE6D9FB7BDE
:101C30000133FB73FB7B3F2BD7D97B68D3F80C2494
:101C40007B68B3F810341946104600F083FC00BFDF
:101C50001037BD4680BD80B582B000AF78607B682C
:101C600008334FF480620021184601F0CDFE00BF1A
:101C70000837BD4680BD000080B400AF074B1B682D
:101C8000064A43F080731360054B1B68044A43F017
:101C90000103136000BFBD4680BC7047FCED00E04F
:101CA000001000E080B500AF0E4B00221A6072B643
:101CB000042001F05BFA0C4B1B680C4AA2FB0323C7
:101CC0009B09184601F03AFA01F05CFA01F062FA59
:101CD000FF21FF2001F074FA62B6FFF7CDFF00BFCD
:101CE00080BD00BFB411002014000020D34D62104D
:101CF00080B400AF024B1B681846BD4680BC7047DD
:101D0000B411002080B485B000AF786039603A68C3
:101D10007B689A4204D93A687B68D31AFB6004E076
:101D20003A687B68D31A2233FB60FB681846143785
:101D3000BD4680BC704780B584B000AF7860396024
:101D400001F004FA0346013BBB603A687B689A42A3
:101D500004D93A687B68D31AFB6006E03A687B686E
:101D6000D21ABB6813440133FB60FB681846103776
:101D7000BD4680BD80B584B000AF786001F0EEF95B
:101D80000346FB6000BF07F10C037968184600F0BA
:101D90003CF80346002BF6D000BF1037BD4680BD8F
:101DA00080B584B000AF7860FFF7A2FF0346FB6008
:101DB00000BF07F10C037968184600F007F80346E6
:101DC000002BF6D000BF1037BD4680BD80B584B073
:101DD00000AF78603960FFF78BFFF8607B681B68A5
:101DE000F9681846FFF78EFFB860BA683B689A42F8
:101DF00001D2002305E0FFF77BFF02467B681A60F3
:101E0000012318461037BD4680BD80B584B000AFB1
:101E1000786039603A681346DB001344DB003B60AE
:101E200001F09CF9F8607B681B681946F868FFF7B9
:101E300082FFB860BA683B689A4201D2002305E08D
:101E400001F08CF902467B681A60012318461037AE
:101E5000BD4680BD80B400AF0C4B1B68002B03D186
:101E60000B4B00221A6008E0084B1B68B3F57A7F21
:101E700003D1074B1B68074A1360044B1B680133EF
:101E8000024A136000BFBD4680BC7047B4110020F9
:101E9000041000E0B811002080B500AF40F282309D
:101EA00000F0F5FB002300220021124800F0C5FBE2
:101EB0004FF47A710F4800F0E2FB47210D4800F023
:101EC000DCFB00210B4800F0C1FB2021094800F099
:101ED000CCFB084800F0C4FB0121064800F0A0FB41
:101EE000FF211E2001F06CF91E2001F05BF900BFFC
:101EF00080BD00BF0008004080B500AF0121084848
:101F000000F092FB0346002B08D00121044800F0AA
:101F100091FB044B1B680133024A136000BF80BD74
:101F200000080040C011002080B487B000AF034615
:101F3000B9607A60FB73FB7B002B03D14FF47A739B
:101F40003B6102E04FF0FF333B617A68BB689A4225
:101F500006D97B689AB2BB689BB2D31AFB820BE0AE
:101F60007B689AB2BB689BB2D31A9AB23B699BB2A8
:101F700013449BB20133FB82FB8A18461C37BD46D3
:101F800080BC704780B582B000AF7860074B1A689C
:101F90007B685A60064800F074FB03469AB27B687F
:101FA0001A8000BF0837BD4680BD00BFC0110020A9
:101FB0000008004080B582B000AF786039600E4BF9
:101FC0001B689AB20D4B1A807B6859680B4B1B88B3
:101FD0001A460120FFF7A8FF02463B68934206D845
:101FE000064B1B881A467B685A60002300E00123D9
:101FF00018460837BD4680BDC0110020BC11002026
:1020000080B582B000AF78600B467B80084B1A68C1
:102010007B685A6000BF7B8819467868FFF7CAFF63
:102020000346002BF7D100BF0837BD4680BD00BF77
:10203000C01100202DE9F04300264FF00F0E43F6AB
:10204000F8789C46036847684CFA06F4E4071BD509
:10205000072E94BF9946B946B4B28BBF4444A4003E
:10206000A400A4B288BFA4B20EFA04F529EA0509B7
:10207000A51C02FA05F501FA04F42C4344EA09040C
:10208000082E2CBF274623460136102EDCD10360D4
:102090004760BDE8F0830000034A136823F0E06363
:1020A000194301431160704704000140024A13685C
:1020B00043F080731360704700100240062822D856
:1020C000DFE800F004090E13181D1F000F4B1868FD
:1020D000C0F3406070470D4B1868C0F3C060704794
:1020E0000A4B1868C0F340707047084B1868C0F37B
:1020F00040407047054B1868C0F340007047044BE0
:10210000F9E7044BF7E70020704700BF00100240DA
:102110002010024024100240024608B51046FFF786
:10212000CDFF0028FAD008BD06280CD8DFE800F063
:1021300004060C11161B1D00FFF7B8BF0C4A1368EC
:1021400043F0806313607047094A136843F080537B
:10215000F8E7074A136843F48033F3E7044A136847
:1021600043F00103EEE7034AF9E7034AF7E700BF4C
:10217000001002402010024024100240034A13685D
:1021800023F0030318431060704700BF041002409F
:10219000034A136823F4701343EA804010607047C9
:1021A00004100240034A136823F4803343EA0040DA
:1021B0001060704704100240034A136823F4003390
:1021C00043EA40401060704704100240024B186818
:1021D00000F40040704700BF20100240024A13681C
:1021E00043F40043136070472010024006283DD896
:1021F000DFE800F037373726370415001C4B1A6824
:1022000042F001021A601A689007FCD51A6822F49D
:1022100040721A601A6842F480721A607047154B57
:102220001A6842F001021A601A689107FCD5104B37
:102230001A6822F440721A601A6842F40072ECE7DD
:102240000D4B1A6842F480321A601A689203FCD56A
:10225000074B1A6822F440721A601A6842F44072FE
:10226000DBE7034A136823F440731360704700BF31
:10227000201002402410024000100240034A13685C
:1022800023F4404343EA803010607047041002405A
:10229000034A136823F4605343EAC0201060704778
:1022A00004100240034A136823F4E06343EA002069
:1022B0001060704704100240034A136823F0F003D3
:1022C00043EA0010106070470410024008B5042073
:1022D000FFF72AFF0420FFF71FFF0020FFF74EFF44
:1022E0000320FFF721FF0320FFF716FF0120FFF770
:1022F00045FF0020FFF7E0FF0320FFF7BFFF0420AA
:10230000FFF7D0FF0020FFF7C3FF022000F0DEF947
:102310000720FFF73DFF0120FFF744FF0020FFF7F4
:102320004BFFFFF7C3FE0020FFF7F6FE0220FFF78A
:1023300025FF044B044A05491360054A1160054A0C
:10234000136008BD00A24A041400002000512502B9
:10235000180000201C000020044B1A689206FCD5CF
:102360001A6842F010021A60704700BF042800404B
:10237000044B1A6822F010021A601A689206FCD503
:10238000704700BF0428004038B5044600254FF4CC
:10239000677000F07CF940F29B3000F078F900F0B3
:1023A0002FF92046FFF722FF0D4C0E4B1D602560D4
:1023B000FFF714FFFFF7D0FF0B4B0C4A1D605D6069
:1023C0001D615D614FF6FF7313605360FFF7D0FF2F
:1023D000236823F00803236023681B07FCD538BD5E
:1023E0000428004000280040082800402028004021
:1023F00008B5FFF7B1FF054B82B2C0F303401A6086
:1024000043F8040CBDE80840FFF7B2BF0C280040B9
:10241000034B186804331B6843EA0040704700BF51
:102420001828004008B5FFF797FF044B020C80B254
:102430001A605860BDE80840FFF79ABF18280040AE
:1024400008B5FFF789FF01280CD005D302280ED06C
:10245000BDE80840FFF78CBF074A136843F001034B
:102460001360F5E7044A136843F00203F8E7024AF1
:10247000136843F00403F3E70028004008B5FFF7B2
:102480006BFF01280CD005D302280ED0BDE8084010
:10249000FFF76EBF074A136823F001031360F5E7E7
:1024A000044A136823F00203F8E7024A136823F092
:1024B0000403F3E700280040012809D002D30228D2
:1024C0000BD07047074A136823F00103136070476D
:1024D000044A136823F00203F8E7024A136823F062
:1024E0000403F3E70428004008B54FF4677000F0D8
:1024F000CEF840F29B3000F0CAF800F081F8064BAD
:102500001A6822F008021A601A681107FCD51A68C6
:102510009206FCD508BD00BF0428004038B505462A
:102520004FF467700C4600F0B2F840F29B3000F0B8
:10253000AEF8FFF74BFE18B1BDE83840FFF7D4BF47
:102540002846FFF721FF2046BDE83840FFF750BF7F
:102550000161704709040161704700004CF6CC42EC
:10256000014B1A60704700BF00300040024B1868F2
:10257000C0F34000704700BF0C300040024B1868A9
:1025800000F00100704700BF0C300040C20008B5E9
:1025900021D00023501E5FEA103CD9B203F10103A1
:1025A00017D1062919D80246FFF7E8FF0028FBD10A
:1025B00045F255500B4B18600B4801601946FFF768
:1025C000D5FF0028FBD145F255530B60074B1A602D
:1025D00008BD5208DEE71146E6E740F6FF72062125
:1025E000E2E700BF00300040043000400830004007
:1025F0004AF6AA22014B1A60704700BF0030004023
:10260000024A136843F480731360704700700040FF
:10261000024A136823F4807313607047007000400F
:10262000C3681943C160704703690B4214BF01209E
:1026300000207047C9430161704710B50468134317
:1026400024F45C740B432343036010BD036801F45E
:10265000407123F4407303600368194301607047BD
:10266000036843F0010303607047436823F070037D
:102670004360436819434160704781627047C1629B
:102680007047406A70474068C0F3080070474309CC
:1026900000F01F02012003F1804303F504331968A1
:1026A000904008431860704700F01F024309012062
:1026B00003F1804303F50433196890400143196026
:1026C0001A6822EA0000186070470000034A136885
:1026D00023F0070318431060704700BF002002403A
:1026E0000A4B98420ED003F57443984206D0A3F5E6
:1026F0007843984209D140F20E2001E04FF4C670B1
:10270000FFF7D2BF40F20F20FAE77047003C0040CD
:10271000036843F040030360704783689B07FCD560
:10272000C160704770B5059C049E44F004043443B6
:1027300005681C431443436805F441550C432C437E
:1027400043F0040343600460002070BD2DE9F041B4
:102750001E4603680546884617469847069BC0F8FC
:10276000DC50C360079BC0E900870361BDF82030DF
:1027700086608382064B0367064BC366064B8366FF
:102780000023C0E93233C0E93433BDE8F08100BF33
:10279000AD2900080D2A00088F2A0008D0F8DC3087
:1027A0005B6A184710B4D0F8DC40A468A44610BC9B
:1027B000604737B5002504460368C582DB792A46A1
:1027C00029460095FFF7EEFFD4F8DC3029465B6818
:1027D00020469847E3691BB103B0BDE83040184775
:1027E00003B030BD10B4D0F8DC40E469A44610BC9E
:1027F000604710B4D0F8DC40246AA44610BC60479F
:10280000D0F8DC301B691847D0F8DC309B691847DA
:10281000D0F8DC305B69184710B503680446D979F5
:10282000838F826B99420FD20B460021FFF7DAFFAC
:10283000022384F82C302368A26BD979A38F0A4431
:102840005B1AA263A38710BD0021FFF7CBFF94F8AA
:102850004430002B0CBF0323022384F82C300023C8
:1028600084F84430A387A363EDE72DE9F74F0446CE
:102870000E4600F1480500F1680B00F1380700F141
:102880003C0800F1400AD5F80090B9F1000F08D0DB
:10289000337869792A790B409A420BD008355D4527
:1028A000F1D143463A463146204603B0BDE8F04FE9
:1028B00000F0A4BBCDF800A043463A46314620467E
:1028C000C8470128EAD803B0BDE8F08F10B501224F
:1028D00000210446FFF794FF002384F82C3010BD3C
:1028E00070B50368828FC48EDB79A41A9C42A8BF9E
:1028F0001C46816BA6B20A44334600210546FFF709
:1029000078FF864205D02846FFF7E0FF4FF0FF3002
:1029100070BDAB8FA0B21E44AE87F9E738B503692E
:10292000044683638B79CA790D4643EA0223838781
:10293000FFF79BFF10B3EB88BBB1A28F21689342D6
:10294000C9790ED97AB192FBF1F301FB1323B3FAE3
:1029500083F35B0984F844302046BDE83840FFF734
:102960005BBF0023F6E71346F4E71A4619462046F4
:10297000FFF738FF042384F82C3038BD2046BDE82B
:102980003840FFF7A3BF70B5002600EBC605AC6C5E
:102990002CB10136042EF8D14FF0FF3070BD85F810
:1029A0004C1085F84D20AB642046F7E770B5002544
:1029B000044605640122294600F13006FFF728FF8E
:1029C000E38E2BB931462046BDE87040FFF7A6BF25
:1029D00094F93020002AF5DBA28A9A4204D22046DC
:1029E000BDE87040FFF772BF2269A587A263226825
:1029F0002046D2799A4234BF05230623002284F868
:102A00002C301146BDE87040FFF702BF90F82C3023
:102A100010B5062B044612D0072B27D0052B21D149
:102A2000FFF75EFF002809DBA28FE38E9B1A226866
:102A3000D279934202DC062384F82C3010BDFFF7D4
:102A40004FFF0028FADB04F130012046FFF70DFFAD
:102A500038B1002320461A461946FFF7C3FE042367
:102A6000EAE72046BDE81040FFF730BF00231A46D2
:102A70001946FFF7BEFE002384F82C30236C1BB1EF
:102A800004F130012046984700232364D6E790F8EC
:102A90002C3010B5032B044607D0042B0ED0022B8C
:102AA00023D1BDE81040FFF7B7BE0723BDE81040B3
:102AB000002280F82C301146FFF7AABE036C13B138
:102AC00000F13001984794F8303053B994F8313020
:102AD000052B06D1618ED4F8DC30C9B25B68204684
:102AE0009847002384F82C3010BDBDE81040FFF754
:102AF000EDBEF8B50D464988044679B103680D2648
:102B0000587C0023984201D80020F8BD626806FB7B
:102B1000032252798A4203D00133F3E74FF0FF33A7
:102B20000133DBB2E3754BB9D4F8DC302046DB6807
:102B30009847D4F8C8309BB90120E6E70D225343EB
:102B400062680D3B13440022104619799142EBD97B
:102B5000D3F809101601715801B108700132F4E779
:102B6000002304F1C806A3642365A365236604F16A
:102B7000D80756F8043B13B1698820469847B742F6
:102B8000F7D1D9E719881268012984BF012119807A
:102B9000C37D2BB141680D2000FB031313F8083CE3
:102BA00013700120704730B50D24C57D40686C431B
:102BB0000D3C04448D88207985420CD20120188078
:102BC0008B88D4F809001B011B5803B11B78012026
:102BD0001268137030BD0020FCE71988012002291B
:102BE00084BF02211980002311680B701268537092
:102BF000704710B514461A88022A84BF02221A8030
:102C00008988C9B2FFF700FE003018BF01200022FA
:102C100023681870236801205A7010BD08B5898890
:102C20000122C9B2FFF7ECFD012008BD08B5898873
:102C30000022C9B2FFF7E4FD012008BD10B50B78F2
:102C400073B94C887F2C0BD8D0F8DC30847593F89E
:102C500030201AB149885B68C9B29847012000E06A
:102C6000002010BD0D2270B51C46C37D5A43436839
:102C70000D3A13441D798A88954218D9D3F8095022
:102C80001201AE184B8836799E4210D9AA5852B11B
:102C90001370D0F8D83013B14A8889889847002338
:102CA0000120238070BD002BF3D01046FAE70020EE
:102CB000F8E72DE9F04F4D881F462B0A022B89B00B
:102CC000164611D0032B00F0E580012B40F01A814D
:102CD00002683988326012788A4228BF0A463A80F0
:102CE000012009B0BDE8F08F0D26EDB26E430369F7
:102CF000D0F80480136018F806503C880193A54270
:102D000028BF254608EB06032A4619460198029378
:102D100000F004FE0022019B641B18F806602B449F
:102D2000A4B20492029A1179BDF81020914203D8FE
:102D3000019B5E803D80D3E7049A12010792029ABC
:102D40000799D2F809200A44D2F80890B9F1000F87
:102D500014D099F800801846A04528BFA0464946DF
:102D6000424600F0DBFD034699F80020A4EB08047E
:102D7000454416444344A4B2ADB2B6B20022059213
:102D8000029A0799D2F809200A441079BDF8141064
:102D9000884202D8049A0132C3E715200599D2F877
:102DA0000CA000FB01F91AF809800AEB090BA045F9
:102DB00028BFA04659464246184600F0AFFD0346DC
:102DC0001AF80920DBF80D10A4EB0804454416445A
:102DD0004344A4B2ADB2B6B2A9B1DBF81180184633
:102DE000A045A8BFA0461FFA88F94A4600F096FD04
:102DF0000346DBF81120A4EB09044D4416444B4470
:102E0000A4B2ADB2B6B24FF000099BF804101FFA9D
:102E100089F2914202D8059A0132B0E7DBF8092025
:102E2000C9EB091A069252440392069A039912F8C2
:102E30000A801846A04528BFA046424600F06EFD15
:102E40000346069AA4EB080412F80A2045441644E7
:102E5000039A4344D2F80710A4B2ADB2B6B2B1B1EE
:102E6000D2F80B801846A045A8BFA0461FFA88FAE2
:102E7000524600F053FD0346039AA4EB0A04D2F82D
:102E80000B20554416445344A4B2ADB2B6B209F176
:102E90000109BAE715F0FF0504690DD10923A370F4
:102EA0000423E37023703B88042B28BF04233B805A
:102EB00003236370346013E783681BB3C268013D6A
:102EC000AA421FDD40F20942898891421AD153F883
:102ED0002550284601F00EF901304000C0B22070A4
:102EE0003B882946984228BF184638803B884A1BB1
:102EF0005B08013B9342DBDD11F8013B04EB42022E
:102F00005380F3E70020ECE619880120022984BFF2
:102F100002211980002311680B70126853707047EA
:102F2000002210B500F1C80454F8043B3BB18B42B9
:102F300008D00132042AF7D14FF0FF3010BD3232F1
:102F400040F822100020F9E710B44C78092C12D870
:102F5000DFE804F00D111111110F0B110905074CD9
:102F6000A44610BC6047064CFAE7064CF8E7064C4E
:102F7000F6E7064CF4E7002010BC7047F32A00087F
:102F8000852B0008B32C0008DB2B00083D2C000823
:102F900010B44C780A2C08D00B2C02D03CB9054C4C
:102FA00000E0054CA44610BC6047044CFAE7002042
:102FB00010BC7047092F0008652C0008A72B0008DB
:102FC00010B44C78012C05D010D3032C07D000206E
:102FD00010BC70474C88002CF9D1054C03E04C889C
:102FE000002CF4D1034CA44610BC6047024CFAE715
:102FF0002D2C00081D2C0008F32B000810B40C78B1
:1030000014F0600F06D104F01F04012C08D004D383
:10301000022C08D0002010BC704710BCFFF794BFF2
:1030200010BCFFF7B5BF10BCFFF7CABF08B540F230
:103030009730FFF72CFB0023054A064913600B600D
:1030400041F80C3C4FF41C430348136008BD00BF1B
:10305000405C0040505C0040C41100200132023945
:10306000521001EB4202914200D1704731F8023F09
:10307000043040F8043CF6E7F0B502F001065208CF
:103080000D46044613462BB91EB111F8223000F844
:103090001230F0BD35F8047B013B24F8027B9BB273
:1030A000F1E7FEE770470000002238B51849194CD7
:1030B00019485318834217D30021184A934217D353
:1030C000174A184C1368184D43F400731360AC4250
:1030D00011D3164C164DAC4211D3FEF779FA154CAC
:1030E000154DAC420FD338BD135953500432E0E7AD
:1030F00019600433E2E754F8043B9847E7E754F8D3
:10310000043B9847E7E754F8043B9847E9E700BFDA
:1031100000000020C09D0008300A0020501300204D
:1031200014ED00E0B89D0008B89D0008B89D0008A7
:10313000B89D0008B89D0008B89D0008024B20F01B
:103140007F401860704700BF14E000E0024B186831
:1031500020F07F40704700BF14E000E0024B186889
:1031600020F07F40704700BF18E000E0044A00F004
:103170000400136823F0040303431360704700BF87
:1031800010E000E0024A136843F002031360704746
:1031900010E000E0024A136843F001031360704737
:1031A00010E000E0012243099B0003F1604300F0BE
:1031B0001F0003F5614302FA00F018607047000039
:1031C000432893BF00F16040044B00F00F0000F56E
:1031D00064408CBFC1540170704700BF14ED00E023
:1031E000024B41F080011960704700BF4C5C004009
:1031F0003E2A11D9013AC2F34412501C400142F058
:103200002002084B92021B6892B29BB203EBC101F1
:10321000054B49005A50704701325208500080B2A5
:10322000EFE700BF505C00400C600040F7B505467A
:103230004FF0C060414C01F07F06CDE90040B40082
:1032400004F1804404F5B84420680DF1080C20F422
:10325000E04020F07F00304380B2206020680CEB1B
:10326000420220F4EC4032F8082C20F070001043A9
:1032700049B280B20029089F2060DFF8C8C04FEA39
:10328000C60E2ADB4EB3DCF80020298B92B296449E
:103290002B4A4FEA4E0E42F80E1028461A46314687
:1032A000FFF7A6FF002F43D1236823F4415323F0F7
:1032B00030031B041B0C2360236823F4804323F09A
:1032C00070039BB283F4405343F4004343F0800304
:1032D00023602B8B1844288328E0DCF80020288BFF
:1032E00092B27244520002F1804202F5C042106074
:1032F0001FB10C2202FB065297662268184422F482
:10330000E04222F030021204120C226022680029EE
:1033100022F4E04222F0400292B282F0200242F413
:10332000004242F0800222602883ACDA03B0F0BD94
:103330000C2303FB0656F766B6E700BF0002000445
:1033400008600040505C004048F2800170B50B4AB4
:103350000B4E0C4D0C4C136833400B439BB2136067
:1033600013682B400B439BB242F8043BA242F2D1BC
:103370000368DB7920335B00038370BD045C00408D
:10338000BF8FFFFF8FBFFFFF205C004010B589B9E2
:10339000002A0CBF202410242A48036823F4E043A9
:1033A00023F0400363401BB243F4004343F0800327
:1033B0009BB203600B0623D5002A0CBF20221022EB
:1033C00001F07F014FEA810101F1804101F5B8412F
:1033D0000B6823F4E04323F0400383EA02031BB2AB
:1033E00043F4004343F080039BB20B6007D10B68AA
:1033F00023F4E04323F030031B041B0C0B6010BDCF
:10340000890001F1804101F5B8413AB90B6823F414
:10341000415323F030031B041B0C0B60002A0CBF2C
:103420004FF440524FF480520B6823F4804323F052
:10343000700353401BB243F4004343F080039BB23C
:10344000DCE700BF005C00400B060ED501F07F01F9
:10345000890001F1804101F5B841086800F03000B1
:10346000102814BF002001207047890001F180411D
:1034700001F5B841086800F44050B0F5805FF0E70E
:103480000B0612D40B4B0C485A54890001F18041B1
:1034900001F5B8410B6803409BB23AB183F4005385
:1034A00043F4004343F080030B60704783F44053C0
:1034B000F6E700BFC01200208FBFFFFF01F07F01C1
:1034C000F8B58C0004F1804404F5B8441D46236827
:1034D000944603F03003302B28D0154FCE003A68C5
:1034E000614692B23244520002F1804202F5C0427B
:1034F00010882A46400000F1804000F5C040FFF7E8
:10350000ADFD39680B4B89B20E4476009D5122689F
:1035100022F4E04222F0400292B282F0300242F401
:10352000004242F0800222602846F8BD0025FBE7F9
:10353000505C004004600040F8B58C0004F1804409
:1035400004F5B8441D4623680E4603F44053B3F512
:10355000405F10463AD01E49F2000B681D4F9BB2E7
:1035600013445B00FB58C3F30903AB4206DA0B6854
:103570009BB213445B00FD58C5F309050B689BB271
:103580001A44154B5200995A2A46490001F18041CC
:1035900001F5C041FFF770FD236823F0F0031B0520
:1035A0001B0D43F0800323600C4B9B5D63B92268C5
:1035B00022F4804222F0700292B282F4405242F42D
:1035C000004242F0800222602846F8BD0025FBE759
:1035D000505C00400C60004008600040C0120020B9
:1035E000374A2DE9F0411368054613F4806F9FB206
:1035F000164608D0BDE8F0414FF6FF331360402374
:103600000383FFF7D6B81C041FD503F00F084FEA59
:10361000880404F1804413F0100304F5B84436D054
:10362000236819053CD5082300F130024146FFF715
:1036300083FF022308EB480213441A3355F8233062
:10364000002B2FD04146284698473A0505D54FF222
:10365000FF7333602B6A03B19847FB0405D54EF620
:10366000FF7333606B6A03B1984717F4007F154C02
:1036700005D04FF6FF52AB6A3260E3B19847AB6AB0
:10368000CBB1236843F400732360BDE8F081226866
:1036900022F0F0021205120D42F400422260C9E746
:1036A0000123C7E7236823F0F0031B051B0D43F03C
:1036B00080032360C9E7236823F40073E4E700BFB5
:1036C000445C0040405C0040024B19687C3100F0D3
:1036D00003B800BF200000202DE9F8430C46074640
:1036E00001F00AF821460646384601F009F804467A
:1036F000406900F26C7818F0030F34D04FEAE87399
:103700004FF4C872804D85FB0815C3EBE51502FB2D
:103710001585002D0CBF302500257C4B1D4400F085
:10372000DFFD00F0E9FD7A4B1B6853B37368434536
:1037300040F09F80D7E90001D6E908893368002B63
:1037400040F0A180404571EB090380F2A680D6E9E4
:103750001223904271EB0303B4BF012300232362C1
:1037600010DA326D0FE06421674A4FEAE87382FB9A
:103770000802C3EB621201FB1282002AC0D030257E
:10378000CBE72362B26A4FF46166624BD01783FBCA
:1037900002131344DB12191A06FB11215E4E1B1A89
:1037A00086FB0126CA170E44C2EB6616C6EB06104E
:1037B000A268A1EB80012068D31A6268411A921BAB
:1037C0003B2984E80E004DDD01323C39C4E900128A
:1037D0003B2A40DD01333C3AC4E90123172B1DDDB0
:1037E000D4E906210132062AC8BF0022A261E2689C
:1037F000183B01320131C4E90232E161216955F817
:1038000021309A4205DD0131D21A0C29E26047D0FD
:10381000216100F06BFD2046BDE8F883002BF8DA4B
:10382000D4E90621013A48BF0622A261E2680139C3
:103830001833013AE161C4E90232002AE9D123696F
:10384000013B37D423619B00EB58E36000F04EFD51
:103850002046BDE8F883002AC0DA013B3C32C4E9C7
:103860000123BBE70029B3DA013A3C31C4E9001275
:10387000AEE7404600F06CFC00287FF45BAF4FF0F1
:10388000FF3323627EE7404571EB09030FDBD6E986
:103890001223904271EB030309DA0123236260E7EC
:1038A00000226369226101336361E261B1E70023B1
:1038B000236267E70B2263692261591E03F26B7270
:1038C0008B07616111D0D3174FF4C8700E4981FB8B
:1038D0000261C3EBE11300FB1323B3FA83F35B092B
:1038E00003F5B6722C23E261AEE764200649D317D4
:1038F00081FB0261C3EB611100FB11210029E3D0C0
:1039000040F26D12EEE700BF1F85EB51EC99000805
:10391000E4120020C5B3A29189888888844641EAD0
:10392000000313F0030349D1403A23D30B6803602B
:103930004B6843608B688360CB68C3600B6903612D
:103940004B6943618B698361CB69C3610B6A036215
:103950004B6A43628B6A8362CB6AC3620B6B0363FD
:103960004B6B43638B6B8363CB6BC36340304031E2
:10397000403ADBD230320BD30B6803604B684360B4
:103980008B688360CB68C36010301031103AF3D27B
:103990000C3205D351F8043B40F8043B043AF9D209
:1039A000043208D0D2071CBF11F8013B00F8013BDC
:1039B00001D30B8803806046704700BF082A13D3E9
:1039C0008B07B1D010F00303AED0C3F10403D21AB9
:1039D000DB071CBF11F8013B00F8013BA4D331F811
:1039E000023B20F8023B9FE7043AD9D3013A11F891
:1039F000013B00F8013BF9D20B7803704B78437020
:103A00008B78837060467047F0B4860743D0541EAD
:103A1000002A3ED0CAB2034602E014F1FF3438D384
:103A200003F8012B9D07F8D1032C2BD9CDB245EA21
:103A300005250F2C45EA054516D9A4F110073F09C5
:103A400003F1200606EB071603F1100242E90455C4
:103A500042E902551032B242F8D104F00F040137A6
:103A6000032C03EB07130DD91E462246043A032A02
:103A700046F8045BFAD8221F22F0030204321344F2
:103A800004F003042CB1C9B21C4403F8011B9C428E
:103A9000FBD1F0BC704714460346C5E72DE9F04161
:103AA000016882B03B29044600F2CA8041683B2984
:103AB00000F2B480A168172900F29E8021690B29C9
:103AC00000F2888063699D0730D164257448DA1755
:103AD00080FB0376C2EB661205FB1232002A65D02A
:103AE000E3681D20002B25DC64274FF4C87C6D4D56
:103AF0006B4E07E001290CBF024655F82120134404
:103B0000002B43DC11F1FF31F4D261694A1E9007AA
:103B100062615BD186FB020ED017C0EB6E1007FB13
:103B20001022002A00F09E801D2050E01C20E36837
:103B3000002BD9DD022600274FF0640E594DDFF827
:103B400060C1012901F101020ED055F821109942FE
:103B5000A3EB01031CDA0C2AC4E903320DD0114691
:103B6000012901F10102F0D19842A3EB00030FDA21
:103B70000222C4E903361146F2E7616927614A1C53
:103B80009007626107D01C200021DAE7C4E9033105
:103B900002B0BDE8F0818CFB0208D017C0EB6810C2
:103BA0000EFB1022002A6BD01D20EDE74FF4C875E4
:103BB00003F26C7380FB0320DA17C2EBE01005FB05
:103BC0001033002B14BF1C201D20B0E71C201F2227
:103BD0000B2194E70C22684600F02CFDDDE9002162
:103BE0006369002913446361BBBF0C3103F1FF33E8
:103BF0002161C4E9041366E71822684600F01AFD43
:103C0000DDE90012E368002A0B44E360BBBF183211
:103C100003F1FF33A260C4E902234FE73C22684668
:103C200000F008FDDDE90023A168002B1144A1602C
:103C3000BBBF3C3301F1FF316360C4E901313AE7B6
:103C40003C22684600F0F6FCDDE900236168002BA9
:103C500011446160BBBF3C3301F1FF312360C4E913
:103C6000003124E701F26B7186FB0120CA17C2EB19
:103C7000E0120CFB1211002914BF1C201D20A6E726
:103C80004FF4C87001F26D718CFB0128CA17C2EBAA
:103C9000E81200FB1211002914BF1C201D2073E73D
:103CA0001F85EB518C9900082DE9F04F89B006462D
:103CB00000F022FD81463046FFF7F0FED6E90023F2
:103CC0004FF46161C3EB0313B06802EB830301FBA4
:103CD0000030B24A3369F56852F82320013D012BC8
:103CE0004FEAE0711544736902DD9C0700F0D8804B
:103CF00044F6206403F51C521032A242F56100F232
:103D0000C281462B00F3A68000F03781452B00F0DE
:103D1000B681452440F26D1B4FF0640ADFF88082C3
:103D20001FE088FB047EC2EB6E120AFB124204F213
:103D30006C7C4FEAEC77002A40F01C8188FB0CE297
:103D4000C7EBE2174FF4C87202FB17CCBCF1000FAF
:103D500014BF5A464FF4B772013C9C42A5EB0205D2
:103D60000AD0A7074FEAE472DBD040F26D12013CA3
:103D70009C42A5EB0205F4D1A70740F06C816427B3
:103D8000874AE31782FB04ECC3EB6C1307FB134376
:103D9000002B40F071814FF4C87E04F26C7C82FBF2
:103DA0000C724FEAEC77C7EBE2120EFB12C2002A4C
:103DB00040F26D1308BF4FF4B773ED1A794B03FB54
:103DC00005F3C71841EBE378CDE9007800F088FAF5
:103DD00000F092FA744B1F68002F00F0C180D6F8F3
:103DE000208070694746D9F80430012F00F26C70CA
:103DF000A8BF0127834260D000F0AAF900285CD157
:103E0000012F40F0AD80D9F850000346C417CDE92A
:103E10000234DDE902ABDDE9003413EB0A0344EBC5
:103E20000B049A46A346012700F060FA5F4B043565
:103E300083FB05235A19EB17C3EBA203C3EBC303A0
:103E4000EB1A48BF07333762B3615046594609B091
:103E5000BDE8F08F462440F26D1A4FF0640E4FF427
:103E6000C878DFF83CC116E0ACFB04B252090EFB87
:103E7000124204F26C77002A6FD1ACFB07B2D20970
:103E800008FB1272002A14BF52464FF4B772013475
:103E90009C42154492D0A207E6D040F26D12F6E79C
:103EA00064273F4CDA1784FB03ECC2EB6C1207FB70
:103EB0001232002A63D001351AE7D9F828E0D9F880
:103EC00050C07046D9E91223B2EB0E0ACDE90423A3
:103ED00062464FEAE07163EB010BD317CDE9022391
:103EE000DDE90023524573EB0B03CDE906AB10DB94
:103EF000DDE90223DDE904ABBAEB020A6BEB030B4D
:103F000052465B46DDE900AB92457BEB0303FFF6CF
:103F100077AFD9E90823DDE902ABD9F80070B2EB3D
:103F20000A0A63EB0B0B52465B46DDE900AB002F40
:103F30003ED092457BEB0303C0F29980DDE9062376
:103F400092457BEB030380F29280B8F1000F7FF47F
:103F500060AFAEEB0C0101273DE04FF4B77296E77E
:103F6000D9F82800C117DDE900AB1AEB000A4BEBCA
:103F7000010B59E74FF4B772EEE61C461EE74FF40B
:103F8000C87C03F26C7784FB0724FA17C2EBE414B5
:103F90000CFB1474002C7FF4ABAE8CE7BC990008CA
:103FA0001F85EB5180510100E412002093244992B7
:103FB00092457BEB030351DADDE90623DDE900AB33
:103FC00092457BEB030349DBB8F1000FCBDD002703
:103FD000AEEB0C0149423368DDE900AB1AEB010A94
:103FE0004BEBE17B194431603046D6F80C80CDE9CB
:103FF00000ABFFF753FDF268B2EB08023FF400AFED
:10400000012A64DD4FF0FF32F3691544D3183FD421
:10401000A20760D164203649E21781FB04ECC2EBB1
:104020006C1200FB1242002A5BD14FF4C87C04F2F0
:104030006C7481FB0401E017C0EBE1110CFB114132
:10404000002940F26D1208BF4FF4B7729342A8BF27
:104050009B1AF361D4E640F26D13AEE6B8F1000F9F
:10406000FFF6D7AEB8F1000F7FF4D3AE71E7B8F129
:10407000000FACDC002776E74FF4B7739DE61C46D3
:1040800040F26D1399E64FF0FF3A4FF0FF3BDCE64C
:10409000631E990722D164201549DA1781FB03ECCE
:1040A000C2EB6C1200FB1233F3B94FF4C87004F288
:1040B0006B7481FB0421E217C2EBE11200FB124298
:1040C000002A40F26D1318BF4FF4B673C1E7901C7D
:1040D000D8BF012298E740F26D12B7E74FF4B673EC
:1040E000B7E74FF4B772B1E740F26D13B1E700BF25
:1040F0001F85EB5120F0030110F00300C0F1000018
:1041000051F8043B00F1040C4FEACC0C6FF00002B4
:104110001CBF22FA0CF213434FF0010C4CEA0C2C9A
:104120004CEA0C4CA3EB0C0222EA030212EACC127A
:1041300004BF51F8043B0430F4D0C2F1000102EA9C
:104140000102B2FA82F2C2F11F0200EBD200704704
:104150002DE9F04F83B0044600F0CEFA40F2B1737F
:104160009C4240F395804FF4C873594AE71782FB8D
:104170000418C7EBE81C03FB1C4C6FF4F661BCF1A0
:10418000000F0CBF3023002340F26D1A6FF4C86695
:104190004FF06409054661180193A4F26D734FEA6C
:1041A000A10EC7EB681782FB0318A4F2B2710AFBD9
:1041B00001E1A619A2FB0662DB17A3EB681309FB5A
:1041C00017470B4403EBD216DFF8108104F003030A
:1041D0004460009300F1500E2B7AD5F814904A2BCE
:1041E0005BD0442B1CD106EB0903AA69A96A08FB22
:1041F00003220A44D317C5E908232835AE45EBD17D
:10420000D0E91223D0E90845944275EB0303B4BF0B
:104210000122002201230260184603B0BDE8F08F9E
:10422000009B002B4CD0DDF804A0EA68294B012A42
:104230009A4433460EDD4FEA820BABF10804544436
:10424000AAF1040252F8041F94420B44FAD1ABF1D4
:10425000040BDA4420491A1D81FB0214D1171444BF
:10426000C1EBA401C1EBC101521AB9EB02092A69E1
:1042700048BF09F10709013ADAF80010C2EBC2029F
:104280004A448A4202DB073A8A42FCDA1344ACE72A
:104290000023184603B0BDE8F08F009A06EB09032F
:1042A00032B92FB1B9F13B0FC8BF0133013B9CE7D5
:1042B000BCF1000FFAD1B9F13B0FC8BF0133F5E7EC
:1042C000019B002F0CBF9A464FF0300AADE700BFAC
:1042D0001F85EB51EC99000893244992805101000D
:1042E000014800F0F1BA00BF44130020014800F07B
:1042F000EFBA00BF44130020014B186800F002B869
:10430000200000202DE9F04F8BB0054600F0F4F9B5
:10431000BC490746284600F0E7F90446002800F0AB
:10432000E780B94E316831B100F0D8FF10B90BB059
:10433000BDE8F08F3168084600F0CEFA2046FFF75E
:10434000D9FE411C284600F0CFFA306010B121465A
:1043500001F0A2F8237808AD3A2B08BF01342B46B0
:10436000AA4AAB49204600F08BFF0028DFDD089BFE
:10437000E25C1C442D2A00F0CB804FF001082B2A70
:1043800008BF0134002606AB02930DF1160300931B
:104390000395019505AA2B469E492046ADF8166067
:1043A000ADF8186000F06CFFB042C0DD4FF4616002
:1043B000BDF81620BDF81810BDF81430C2EB02127B
:1043C00001EB820200FB032308FB03F3089ADFF8EA
:1043D00058821444DFF834C2DFF84492BB622046AE
:1043E00042462B468A49C9F800C000F049FFB04256
:1043F00040F39580089BC9F80480E25C1C442D2A98
:1044000000F0F2804FF001082B2A08BF013400268B
:1044100006ABCDE901530DF11603009303952B462E
:1044200005AA7C492046ADF81460ADF81660ADF8D9
:104430001860089600F024FFB04240F3D0804FF49B
:104440006160BDF81630BDF81810C3EB0313BDF85A
:10445000142001EB830300FB023308FB03F33B65ED
:10446000B8464FF00009089BDFF8C0A1DFF8C0B1E3
:104470001C4426782C2E04BF667801344D2E65D05E
:104480004A2E08BF01344FF00A0209A9204618BF7E
:10449000442601F061F9099BADF81E00A34248D003
:1044A00080B2C8F8140088F808601C460023022275
:1044B000ADF81630ADF81420ADF818300893237815
:1044C0002F2B6ED04FF4E153C8F8183008F12808AC
:1044D000B9F1000F20D07868FFF73AFEBA6A3B6D59
:1044E0004D489B1A18BF01234C4903600A601EE720
:1044F0004A4A454D48494A4B14604A4A28680C606C
:10450000C3E9002200F0E8F92C600BB0BDE8F08FA1
:1045100001344FF0FF3835E74FF00109A9E7B86AD9
:104520003E49D9F800203C4B0860C9F804201E60C1
:10453000FDE6B9F1000F5BD04D240B2001210022D4
:1045400087F83040C7E90D01FA63AEE70DF11E02AE
:1045500007ABCDE90152009303952B460DF11A02EA
:104560005146204600F08CFE03287FF4E0AEBDF8F3
:104570001A305A1E0B2A3FF6DAAEBDF81C20511E27
:1045800004293FF6D4AEBDF81E1006293FF6CFAE83
:10459000C8E9033288F80860C8F81410089B1C4466
:1045A00084E74FF4616606ABCDE901530DF11603C4
:1045B000009305AA2B4659462046039500F060FE5D
:1045C000BDF81620BDF81800C2EB0212BDF8143079
:1045D000089900EB820206FB03230C4474E7BB6AD4
:1045E000A3F561633B653BE701344FF0FF380EE70D
:1045F0004D2003210222C7F814903872C7E9031234
:1046000053E700BF4C9A0008E0120020D4120020AB
:10461000549A0008649A0008E4120020E81200206E
:1046200050040020509A0008C8120020789A000810
:104630008C9A000891FBF2F3002910B402FB1314CA
:104640000BDB002C03DBC0E9003410BC7047A41A5C
:104650000133C0E9003410BC7047002CC4BFA4185B
:1046600003F1FF33C0E9003410BC70472DE9F04777
:104670001C4F0E469146804601F0FAFD3D68F5B1AB
:1046800034785CB13D2C18BF344602D117E03D2B85
:1046900015D014F8013F002BF9D1A41B286870B184
:1046A0002246314600F056FF28B92868035D00EB2A
:1046B000040A3D2B09D055F8040F0028F0D14046DC
:1046C00001F0DCFD0020BDE8F0873B684046ED1AB4
:1046D000AD10C9F8005001F0D1FD0AF10100BDE8AC
:1046E000F08700BFC008002000B583B001AAFFF723
:1046F000BDFF03B05DF804FB00487047580400207C
:104700002DE9F041D0E900670C4630463946604A51
:10471000002302F083FF394600F52F285C4A30461B
:10472000002302F07BFF4FF46163002AB8BF02F55B
:10473000A8325848B8BF02F5C072A0FB02604FEA29
:10474000D02003FB10225449B4BF08F66B2508F6AD
:104750006C25524BA1FB0261EE1C83FB06739F1973
:10476000F317C3EBA7034909C3EBC303F31AA06014
:10477000C1EB011048BF0733A2EB8002002DC4E952
:104780000021A36179DB464BE81783FB0523C0EBCF
:10479000E33040F26D164349434A01FB0051434F59
:1047A0008D08A2FB0532DFF81CC1A7FB05350B09FC
:1047B000ACFB03C301EBD222A2EBD5123C4DA2EB22
:1047C00013123C4BA5FB02C5A3FB023C9308A7FBBD
:1047D0000337521B01EBDC3305EB5202A3EBD7137B
:1047E000120A06FB1233344D03EB83010231A5FBA1
:1047F00001514FF4C876C90909298CBF6FF0090728
:10480000022701EBC10506FB002005EB05152B4E29
:104810000235A6FB056539445E1C012998BF0130AD
:10482000B3F5997FA6EB950524D2960717D04FF4E0
:10483000C877234EA6FB02C6F60907FB1622B2FA7A
:1048400082F252093B3313440022A0F26C70606183
:10485000E361C4E9035122622046BDE8F081642788
:10486000174EA6FB02C6760907FB1626002EDED0E1
:104870000122E7E7A3F59973E6E7A5F50E330848AB
:10488000A3F52C7380FB0320DB17C3EBE03080E73C
:1048900080510100C5B3A2918988888893244992E8
:1048A000BD066B394FC5FDFF7F206B39D97CC659DA
:1048B00061F319671F2BD3E5D7802BD6CDCCCCCC99
:1048C0001F85EB5141D67200704700BF704700BF93
:1048D000704700BF704700BF024B0146186801F0E7
:1048E00023BD00BF200000202DE9F04F01F10B0592
:1048F000162D83B0064623D8102900F2B68000F0AA
:10490000E7FA102518230220CC4F3B445C68A3F142
:104910000802944200F056816368E16823F00303C3
:1049200023445A68A56842F00102E96030468D6070
:104930005A6000F0D3FA0834204603B0BDE8F08F87
:1049400035F0070500F19180A94200F28E8000F059
:10495000BFFAB5F5FC7FC0F064816B0A00F08C8073
:10496000042B00F23681AB0903F1390003F1380C56
:10497000C100B24F39444C680839A14206D10CE05D
:10498000002A80F21B81E468A14206D0636823F00C
:1049900003035A1B0F2AF3DD60463C69DFF8B0C2FF
:1049A00064456FD0636823F003035A1B0F2A00F39A
:1049B0002681002AC7E904CC80F21781B3F5007F75
:1049C00080F059810122DB08991013448A407968EC
:1049D00057F833E007EBC3080A43A8F10801C4E91C
:1049E00002E17A6047F83340CEF80C40012483108E
:1049F0009C4094424CD8144206D120F0030064003D
:104A0000144200F10400FAD007EBC009CE468046FC
:104A1000DEF80C309E4507D107E1002A80F21C81A8
:104A2000DB689E4500F00181596821F003014A1BB3
:104A30000F2AF2DD45F001083046D3E902E41D44B7
:104A400042F00106C3F80480CEF80C40C4F808E038
:104A5000C7E90455C5E902CC6E605A50019300F0D5
:104A60003DFA019B03F1080466E700240C2320466D
:104A7000336003B0BDE8F08F4FF4007140204FF079
:104A80003F0C76E701247A6883109C409442B2D9A7
:104A9000BC68636823F00309A94503D3A9EB0503A8
:104AA0000F2B7BDC664BDFF8ACA11A68DAF800301C
:104AB00005EB0208013300F03A8108F5805808F14F
:104AC0000F0828F47F6828F00F084146304600F0B0
:104AD000C5FBB0F1FF3F834600F0F68004EB090010
:104AE000584500F2EF80574A13684344136000F0C2
:104AF0003F81DAF8001001311BBFABEB00001B183F
:104B0000CAF800B013601BF0070300F02681C3F160
:104B10000801C3F580538B440833D844C8F30B080D
:104B2000A3EB080841463046019200F097FB431C76
:104B3000019A00F03881A0EB0B01414441F00101E2
:104B40001368BC424344C7F808B01360CBF80410A4
:104B500015D0B9F10F0F40F222814FF0050E6168B8
:104B6000A9F10C0020F0070001F00101014304EB62
:104B7000000C0F286160CCE901EE00F22C81324A72
:104B800032481168BC688B42016888BF1360626854
:104B90008B4222F0030288BF036099E045F00102D6
:104BA00043F00103254462603046BD6008346B6009
:104BB00000F094F9204603B0BDE8F08F23445A6812
:104BC000E168AFE6DC68A34208BF02303FF4E5AE1F
:104BD000A2E6142B70D9542B00F2AC802B0B03F1FE
:104BE0006F0003F16E0CC100C3E623445A683046DF
:104BF00042F001025A60083400F070F99CE645F07A
:104C0000010E42F001012544C4F804E03046C7E932
:104C10000455C5E902CC6960E25000F05FF9083440
:104C20008AE6E80805F108036EE608F1010818F0C5
:104C3000030F0EF1080E7FF4EBAE60E0B00400202D
:104C40001C130020EC120020141300201813002065
:104C5000B8040020B80800201C4619444A68DB68E4
:104C600054F8085F42F001024A603046EB609D60F4
:104C700000F034F960E65A0A042A35D9142A6FD8AC
:104C800002F15C01C9005B3207EB010E7958AEF10D
:104C9000080E8E4558D04A6822F003029A4202D983
:104CA00089688E45F7D1D1F80CE07A68C4E9021E14
:104CB000CEF80840CC6099E603F15C0003F15B0C90
:104CC000C10056E6BC4272D0BC68626822F00302A2
:104CD0009542A2EB050302D80F2B3FF75FAF30469A
:104CE00000F0FCF8002427E69A0902F13901C90016
:104CF0003832C9E7D9F80090994540F0838010F028
:104D0000030FA9F1080300F1FF30F3D17B6823EA18
:104D100004037B6064009C423FF6BAAE1CB9B7E660
:104D2000640008F104081C42FAD040466CE608F121
:104D30001008CAE6B3F5AA7F26D8EB0B03F178007A
:104D400003F1770CC10014E64FF001087B68921064
:104D500008FA02F21A437A60A8E74FF48053DCE6BF
:104D6000542A29D81A0B02F16F01C9006E328BE761
:104D7000C0F30B0100297FF4BCAE09EB0802B9684F
:104D800042F001024A60FAE640F2545293421CD8C3
:104D9000AB0C03F17D0003F17C0CC100E9E50123BC
:104DA000CBF804309BE701214FF00008C8E6164A13
:104DB0001368434413609CE6B2F5AA7F14D8DA0B5B
:104DC00002F17801C90077325EE74FF47E717F20EF
:104DD0004FF07E0CCDE504F108013046019201F060
:104DE000A3FA019A1368CAE640F254518A4205D8E0
:104DF0009A0C02F17D01C9007C3245E74FF47E71C7
:104E00007E2241E77B6885E7EC1200208842F0B4FF
:104E10000DD98B1883420AD9841832B1224613F86F
:104E2000014D994202F8014DF9D1F0BC70470F2AAB
:104E300048D940EA01039B0746D1A2F110031B09A0
:104E400001F1200707EB031701F1100400F1100531
:104E500054F8106C103445F8106C54F81C6C103574
:104E600045F81C6C54F8186C45F8186C54F8146C20
:104E7000BC4245F8146CEBD1013302F00F051B0165
:104E8000032D1944034421D90F462C461E1F57F801
:104E900004CB043C032C46F804CFF8D82C1F24F094
:104EA000030404342344214402F00302002ABCD04A
:104EB000013B0A4411F8014B914203F8014FF9D12B
:104EC000F0BC70470346F1E70346F1E72A46EDE7F9
:104ED0000148FFF7FBBC00BF381300200148FFF773
:104EE000F9BC00BF381300202DE9F04F924683B083
:104EF000002900F0A1800D4680460AF10B04FFF75F
:104F0000E7FF55F8042C162C22F00306A5F108073C
:104F10003ED810242146A2453FD88E4207EB060911
:104F200074DAC84B9868484500F0AA80D9F80400A4
:104F300020F001034B445B68DB0740F18380D2071C
:104F400034D551464046FFF7CFFC8246E0B155F8D4
:104F5000043CA0F1080223F001033B44934200F01B
:104F60000E81321F242A00F21481132A296800F2CC
:104F7000FB8003462A4619605168596092689A601E
:104F80002946404601F0D0F94046FFF7A7FF4FE021
:104F900024F00704002C2146BDDA4FF0000A0C2350
:104FA0005046C8F8003003B0BDE8F08F55F8083C13
:104FB000A7EB030BDBF8042022F00302B3188B42AB
:104FC000BFDBDA46DBF80C105AF8080F321F242A30
:104FD000C1600BEB0309886000F2BE80132A2968C8
:104FE00040F2D580CBF8081069681B2ACBF80C106A
:104FF000A96800F2E5800BF11002083511606968BC
:105000001E465160AB685F46554693607A68331B15
:105010000F2B02F0010222D832437A60D9F8043013
:1050200043F00103C9F804304046FFF757FFAA4692
:10503000504603B0BDE8F08F114603B0BDE8F04F15
:10504000FFF752BC20F0030033188B4263DBD9E931
:1050500002121E46CA6007EB03099160D6E73919B0
:10506000224343F001037A604B60D9F804300831E1
:1050700043F00103C9F80430404601F055F9D3E785
:10508000D0F8049004F1100029F00309B1448145DF
:1050900080F28380D2073FF554AF55F8082CA7EB78
:1050A000020BDBF8042022F003029144484585DC22
:1050B000DA46DBF80C105AF8080F321F242AC160B8
:1050C000886000F2AB80132A296840F2A580CBF8F3
:1050D000081069681B2ACBF80C10A96800F2A5809B
:1050E0000BF110020835116069685160A968916080
:1050F000A9EB04020BEB040142F0010299604A6043
:10510000DBF80430404603F001031C43CBF80440B5
:10511000FFF7E4FE8CE7D3073FF513AF55F8083CE3
:10512000A7EB030BDBF8042022F0030210448319E1
:105130008B42FFF643AFD9E90201DA46C1608860CD
:105140005AF8080FDBF80C10321F242AC1600BEB51
:10515000030988607FF642AF294650461E465F46E7
:10516000FFF754FE554651E701606B681B2A436008
:1051700032D805F1080200F10803A968FBE650F8EF
:10518000043C23F003031E4407EB06093EE75246A6
:1051900034E72946FFF73AFEF2E6A9EB0409274473
:1051A00049F001029F607A6055F8043C404603F0E4
:1051B00001031C4345F8044CFFF790FEAA4637E76D
:1051C000CBF81010E968242ACBF8141029690FD005
:1051D0000BF11802103511E7AB68242A8360EB68E5
:1051E000C3600FD005F1100200F110032969C2E677
:1051F000CBF8181069690BF12002CBF81C10A969D3
:105200001835FBE62B6905F118020361696900F1A5
:1052100018034161A969AEE6524664E72946504643
:105220000193FFF7F3FD019B62E7CBF81010E968EB
:10523000242ACBF81410296906D00BF11802103576
:1052400051E700BFB0040020CBF8181069690BF1DA
:105250002002CBF81C10A969183544E738B50023A3
:10526000064C05460846236002F0AAFB431C00D00A
:1052700038BD2368002BFBD02B6038BD4C130020B9
:105280000EB44FF40172F0B59CB021AC54F8047B1D
:10529000ADF8142002900690FEF72CFF0021054681
:1052A0004FF6FF760A4B019418682346094C0E917D
:1052B00013913A4602A903950795ADF816600A9432
:1052C00000F0F8FA1CB0BDE8F04003B0704700BF32
:1052D00020000020D95200080020704780EA010C0D
:1052E0001CF0030F37D110F0030C20F0030021F065
:1052F000030150F8042B08BF51F8043B0ED08CF08A
:10530000030C6FF07F434FEACC0C23FA0CFC51F8EE
:10531000043B42EA0C0243EA0C0300BFA2F1013C49
:105320009A4201BF2CEA020C1CF0803F50F8042B7B
:1053300051F8043BF2D04FEA02604FEA12220128F2
:1053400028BFB0EB036F08BF1B0AF4D003F0FF03C4
:10535000000EC01A704710F0030F0AD010F8012B8E
:1053600011F8013B012A28BF9A42F4D0A2EB0300B6
:1053700070474DF8045D50F8042B01F0030521F04F
:10538000030151F8043B022D26D04DD822F07F4571
:10539000B5EB132FA2F1013C2CEA020C0DD11CF04D
:1053A000803C08BF51F8043B0AD185EA0205B5EB01
:1053B000036F0CD150F8042BE8E74FEA13235BE0AE
:1053C0003CF07F4C54D10B784FEA126554E04FEA21
:1053D000126503F0FF034FE04FEA0245A2F1013CE2
:1053E0004FEA15452CEA020CB5EB134F18D11CF00F
:1053F000803C08BF51F8043B07D185EA0205B5EBB4
:10540000034F09D150F8042BE6E75FEA0C4C2FD18B
:105410000B884FEA12452FE04FEA03434FEA12454B
:105420004FEA134328E000BF02F0FF05B5EB136F0E
:10543000A2F1013C2CEA020C0DD11CF0803C08BF0B
:1054400051F8043B0AD185EA0205B5EB032F0AD1D6
:1054500050F8042BE8E74FEA13630DE012F0FF0F5A
:1054600006D051F8043B4FEA122523F07F4303E0B6
:105470004FF0000020BC704705F0FF0203F0FF0072
:10548000012828BF904204BF2D0A1B0AF4D0A2EBCA
:10549000000020BC704700BF80EA0102844612F081
:1054A000030F4FD111F0030F32D14DF8044D11F01D
:1054B000040F51F8043B0BD0A3F101329A4312F0D0
:1054C000803F04BF4CF8043B51F8043B16D100BFA9
:1054D00051F8044BA3F101329A4312F0803FA4F13A
:1054E00001320BD14CF8043BA24312F0803F04BFC1
:1054F00051F8043B4CF8044BEAD023460CF8013B2E
:1055000013F0FF0F4FEA3323F8D15DF8044B7047D7
:1055100011F0010F06D011F8012B0CF8012B002A15
:1055200008BF704711F0020FBFD031F8022B12F004
:10553000FF0F16BF2CF8022B8CF8002012F47F4FBF
:10554000B3D1704711F8012B0CF8012B002AF9D1C7
:10555000704700BF002A3FD040EA010313F0030365
:10556000F0B425D1032A23D904680D68AC421FD1B9
:10557000043A33D0A4F1013525EA040414F0803F45
:105580002FD1071D0D1D0DE057F8043B0E68A3F148
:105590000134B34224EA03040AD1043A1ED014F0C1
:1055A000803F1BD1032A2946384605F10405EBD874
:1055B00003780C78013A9C420BD17AB114B90DE012
:1055C00062B173B110F8013F11F8014F013AA342E3
:1055D000F6D0181BF0BC7047104670470020F0BC96
:1055E00070471846F6E700BF2DE9F0470D4607461D
:1055F000164698468A4600E0A2465446089814F893
:10560000019B00F0A1FF4844407810F00800F3D15E
:10561000B9F12D0F5CD0B9F12B0F12BF49469AF8A2
:1056200001100AF10204B8F1000F0CD0B8F1100F0C
:1056300054D04FF0FF3EBEFBF8FE08FB0EFAC14609
:105640006FEA0A0A08E0302950D04FF00A084FF0FC
:10565000050AC146DFF8D8E000239C4607E0F44580
:1056600013D828D0012309FB0C2C14F8011BA1F13D
:105670003002092A05D9A1F14102192A08D8A1F15D
:10568000370290450CDD002BE9DA4FF0FF33ECE7F1
:10569000A1F16102192A03D8A1F157029045F2DC69
:1056A000002B0DDB08B1CCF1000C0EB173B93560E5
:1056B0006046BDE8F0875245D4DD4FF0FF33D4E7B4
:1056C00022234FF0FF3C3B60002EF1D0651EEEE739
:1056D0000AF102049AF801100120A4E7302912D03F
:1056E0004FF00F0A6FF0704EC146B5E7237803F014
:1056F000DF03582B0CD04FF008084FF0070AC146C3
:105700006FF0604EA8E7237803F0DF03582B09D130
:105710004FF010096178C84602344FF00F0A6FF05D
:10572000704E99E7C1466FF0704E4FF00F0A93E745
:105730009999991930B5064C064D246883B0646B6D
:10574000002C08BF2C460094FFF74EFF03B030BD7D
:1057500020000020C4080020084B70B51D68084ECA
:105760006C6B82B0002C08BF3446134600940A4686
:1057700001462846FFF738FF02B070BD2000002028
:10578000C40800204B1C70B51AD09389146B23F009
:1057900020039381CDB25368ACB11446526B9A4248
:1057A00009DD23685A1E226003F8015C6368013337
:1057B0006360284670BD214600F01EFD0028F0D031
:1057C0004FF0FF35F5E71169106829B1814203D226
:1057D00010F8011CA9420ED0114603260124C2E98B
:1057E0000E0302F14003C2E90C3601F8425FC2E940
:1057F0000014284670BD01380133C2E90003D8E720
:1058000010B50C46096B69B104F14003994201D00F
:1058100000F08AFD0020E36B2063636013B1A36B8B
:10582000236010BD0021A389226943F020034FF0BB
:10583000FF30A381C4E9002110BD00BF2DE9F04F66
:1058400002FB03F783B001929A460C9C2FB380466B
:105850000E463D464FF0000910E05A463046FEF72E
:105860005DF82268C4F804905A44226021464046FC
:10587000A5EB0B055E44FFF7C3FF90B9D4E9001B0D
:10588000AB45EAD357462A463046FEF747F8D4E9F7
:105890000032521B1D44C4E90052384603B0BDE833
:1058A000F08F019B7F1BB7FBF3F7384603B0BDE8D1
:1058B000F08F00BF2DE9F04F0C46B1F90C10D9B0B4
:1058C000824688049146059306D4636E41F40051E4
:1058D00023F40053A181636600239B46069304933F
:1058E00003934F4617F8013B0B93002B00F0C88041
:1058F00000F02EFE0B9B1844467816F0080640F088
:105900001181252B40F02A81354699F8018007F155
:105910000109B8F1780F00F23983DFE818F0D702F7
:1059200037033703370337033703370337033703A7
:105930003703370337033703370337033703370397
:105940003703370337033703370337033703370387
:105950003703370337033703370337033703370377
:1059600037033703370337031E0137033703370382
:105970003703F50237033703370337033703E402EE
:10598000E402E402E402E402E402E402E402E402E7
:10599000E40237033703370337033703370337038B
:1059A00037033703370379003703370337033703E8
:1059B000370337033703310337033703E400370373
:1059C00037033703370337033703370337032E0310
:1059D0003703370325033703370337033703370309
:1059E0003703370321037B003703370337031B03D8
:1059F000DE0237033703FB0237030D03E60005031E
:105A000037033703F3023703ED02370337032E035F
:105A100046F00106754B032706930A230493636837
:105A2000002B6ADD710635D5022F00F04C81032F63
:105A300000F0E080012F00F0A480002D08BF0125B8
:105A400006F0100816F0010640F03083B8F1000FA0
:105A50003CD1059E2B463168012200945046FFF749
:105A6000EDFE331D00284ED04F46039A059317F8DC
:105A7000013B0132834403920B93002B7FF438AF38
:105A8000039859B0BDE8F08F21465046FFF7B8FEA5
:105A9000002838D100F05CFD23681A7801331044E7
:105AA00042781207C0D562680BF1010B013A002A57
:105AB0006260E9DD2360EDE72160504621461E4427
:105AC000ED1AFFF79DFE002840F04C83D4E9002337
:105AD0009D4202EB0301EFDC5B1B2A44C4E9002377
